:10000000FC01FD010A128A11052883168601870169
:1000100088010A128A111C23FA300A128A117223EB
:10002000A00100300A128A11F822EF30A000073038
:10003000A1000A128A119D23A00103300A128A111D
:10004000F822E430A0000730A1000A128A119D2393
:10005000A00105300A128A11F822D330A00007301F
:0E006000A1000A128A119D230A128A11362865
:10056C008312031324082304031DC02AA301A4012E
:10057C00A50108002308A6002408A7000030A41B2E
:10058C00FF30A800A41FD22AA609A709A809A60A09
:10059C000319A70A0319A80A8E30B10026300A12D3
:1005AC008A118A250A128A112608A41FEA2AA90090
:1005BC002708AA002808AB00F0222908A6002A0860
:1005CC00A7002B08A8002608A3002708A4002808C9
:1005DC00A50008002B082A04290403190800803000
:1005EC00AB060800A1000630A40020080E23123E22
:1005FC00A3002108B03E61230A128A11230E0F3981
:10060C00A200113861230A128A1123080F39612BB9
:10061C00A500A60124082518A6070310A40D031095
:10062C00A50CA508031D102B2608080067230A1229
:10063C008A11A63061230A128A11A23061230A1290
:10064C008A11A13061230A128A11C03061230A1267
:10065C008A11243061230A128A11813061230A1213
:10066C008A112E3061230A128A112F3061230A124B
:10067C008A11E33061230A128A112F3061230A1286
:10068C008A11AF3061230A128A11A53061230A1234
:10069C008A1132307223AE3061230A128A110B2474
:1006AC000A307223AF3061230A128A111E30722372
:1006BC00A430612B0800A40006108610FC238614BD
:1006CC0008008312061486143230722386106430AC
:1006DC0072238614FA30722BA0000A30A300200873
:1006EC008223A100A2017D2B83120313A20A2108ED
:1006FC002202031808007A2BA400A601A3080319F0
:10070C009B2BA501A50A0310A31B8F2BA30D882BD4
:10071C000310A60D23082402031C982B2308A40203
:10072C0026140310A30CA50B8E2B26080800A2017F
:10073C00B02B2108A4002008A30022082307840062
:10074C0024080318240A0A128A1100260A128A1194
:10075C00C323A20A2108A4002008A300220823070F
:10076C00840024080318240A0A128A1100260A128B
:10077C008A110038031908009F2BA600203026028E
:10078C00031C08008030260203180800A70105305E
:10079C00AE00AF012608AC00AD0127246C30A800D8
:1007AC000530A9002C082807AA002D0803182D0ACB
:1007BC002907AB0027082A0784002B0803182B0AEB
:1007CC000A128A1100260A128A11A500F6230A12AF
:1007DC008A11A70A05302702031CCD2B0030F62BFB
:1007EC00AC0006148610FC2386140800AD000830FB
:1007FC00AE008711AD1B042C8712052C87168715AC
:10080C000310AD0DAE0BFF2B0800A0012008B03E6D
:10081C0061230A128A11113061230A128A110130E4
:10082C0061230A128A116030A1000030F6230A12EB
:10083C008A11A10B1B2CA00A0930200203180800F6
:10084C000C2CB001B1012C1C312C2E08B007031854
:10085C00B10A2F08B1070310AE0DAF0D0310AD0C8C
:10086C00AC0C2D082C04031D292C3108AD003008CC
:10087C00AC000800831203132830B1002330EA24A3
:10088C00A7002308A9002408AA002508AB00AC0186
:10089C008E30A802A81F642C2808803A8F3E0318BB
:1008AC005C2CA301A401A501A60108000310AC0C4B
:1008BC00AB0CAA0CA90CA80F5C2C762C20302802AF
:1008CC00031C732CA301A401A501A60108000310AD
:1008DC00A90DAA0DAB0DAC0DA803A808031D6D2C1A
:1008EC00A7080319842CA909AA09AB09AC09A90A00
:1008FC000319AA0A0319AB0A0319AC0A2C08A6009F
:10090C002B08A5002A08A4002908A30008008312BC
:10091C000313AD01AE01AF012B30B1002330EA243B
:10092C00AA00AB08031DA12C2D08A3002E08A400BF
:10093C002F08A50008002930B1002630EA24AC00AD
:10094C00A908031DB02C2D08A3002E08A4002F0805
:10095C00A50008002908893EB000AB022C08AA06A5
:10096C001830AC000310AD0DAE0DAF0D28082502EC
:10097C00031DC62C27082402031DC62C260823029F
:10098C00031CD52C2608A3022708031C270FA4023E
:10099C002808031C280AA5020130AD040310A30D7E
:1009AC00A40DA50DAC0BB82C2B08B1002D308A254D
:1009BC00AA080319E32C8030AF042D08A3002E08DD
:1009CC00A4002F08A5000800B200840083130008BF
:1009DC00B400840A0008B500840A0008B6000310AD
:1009EC00350D360DB300B700310884003708800090
:1009FC00B308031D0A2D3208840000308001840ADC
:100A0C008001840A80010800B30132088400840A42
:100A1C0080308004840A320884000008B400840A00
:100A2C000008B500840A0008B600B61BB30A3208E9
:100A3C008400840A840A800133080800831203139B
:100A4C00AC01AD01AE012A30B1002330EA24A9007B
:100A5C002B30B1002630EA24A906AB08031DAA08E6
:100A6C00031D3F2D2C08A3002D08A4002E08A50063
:100A7C0008002B087B3EAA070730AB00231C542D23
:100A8C002608AC07270803110318270A031DAD0716
:100A9C00280803110318280A031DAE070310A50C20
:100AAC00A40CA30C0310A60DA70DA80DAB0B442D85
:100ABC000930AB00231C702D2608AC072708031146
:100ACC000318270A031DAD07280803110318280A69
:100ADC00031DAE070310A50CA40CA30C0310AE0C45
:100AEC00AD0CAC0CAB0B602D2A08B1002C308A2558
:100AFC00A9080319832D8030AE042C08A3002D08FF
:100B0C00A4002E08A5000800B200B10803199D2D01
:100B1C003208840083130008B300840A0008B40070
:100B2C00840A0008B50034043304031DB12D3208C7
:100B3C008400003083138001840A8001840A8001C0
:100B4C000800B10A3208023E84000310800C8403B2
:100B5C00800C8403800C3208023E8400FE300005B9
:100B6C000319D22DA72DB10A320884000130800759
:100B7C00840A00300318013E031D8007840A0030EC
:100B8C000318013E80073208023E84000310800CDB
:100B9C008403800C8403800C3208023E840000081D
:100BAC000319E22DB92DB103320884000310800D16
:100BBC00840A800D840A800D320A8400801FD92D8E
:100BCC003118EF2D32088400840A7F308005840AA6
:100BDC00FF300310B10C3108B500B401B301320879
:100BEC00840033088004840A34088004840A35089D
:100BFC0080040800FE00FE1F082E83137E18831746
:100C0C00000808008A000408820000340034003414
:100C1C00003400340034003400342F3400340034F9
:100C2C000034073400340734003414347F34143463
:100C3C007F34143424342A347F342A341234C434A8
:100C4C00C8341034263446343634493455342234BE
:100C5C0050340034053403340034003400341C3474
:100C6C002234413400340034413422341C340034F6
:100C7C00143408343E3408341434083408343E3404
:100C8C000834083400340034503430340034103418
:100C9C0010341034103410340034603460340034A8
:100CAC000034203410340834043402343E345134CB
:100CBC00493445343E34003442347F3440340034BB
:100CCC00423461345134493446342134413445344E
:100CDC004B3431341834143412347F3410342734F8
:100CEC0045344534453439343C344A344934493438
:100CFC003034013471340934053403343634493416
:100D0C0049344934363406344934493429341E3490
:100D1C00003436343634003400340034563436342F
:100D2C000034003408341434223441340034143484
:100D3C001434143414341434003441342234143440
:100D4C000834023401345134093406343234493411
:100D5C00593451343E347E341134113411347E34D0
:100D6C007F3449344934493436343E344134413487
:100D7C00413422347F344134413422341C347F34A6
:100D8C0049344934493441347F3409340934093401
:100D9C0001343E344134493449347A347F34083494
:100DAC00083408347F34003441347F344134003407
:100DBC002034403441343F3401347F34083414340B
:100DCC00223441347F3440344034403440347F3416
:100DDC0002340C3402347F347F340434083410343D
:100DEC007F343E344134413441343E347F34093411
:100DFC000934093406343E344134513421345E34E0
:100E0C007F3409341934293446344634493449344E
:100E1C0049343134013401347F34013401343F34EA
:100E2C004034403440343F341F3420344034203478
:100E3C001F343F344034383440343F34633414343A
:100E4C0008341434633407340834703408340734E9
:100E5C006134513449344534433400347F344134A3
:100E6C004134003455342A3455342A345534003442
:100E7C00413441347F3400340434023401340234BC
:100E8C000434403440344034403440340034013471
:100E9C00023404340034203454345434543478340C
:100EAC007F3448344434443438343834443444344F
:100EBC004434203438344434443448347F34383463
:100ECC00543454345434183408347E3409340134D2
:100EDC0002340C345234523452343E347F3408349D
:100EEC00043404347834003444347D3440340034D5
:100EFC002034403444343D3400347F3410342834AE
:100F0C0044340034003441347F34403400347C3475
:100F1C0004341834043478347C3408340434043401
:100F2C007834383444344434443438347C341434D1
:100F3C0014341434083408341434143418347C3411
:100F4C007C34083404340434083448345434543471
:100F5C005434203404343F344434403420343C344E
:100F6C004034403420347C341C342034403420341D
:100F7C001C343C344034303440343C344434283415
:100F8C001034283444340C345034503450343C3401
:100F9C004434643454344C3444342A345334453457
:100FAC00423449344E342034433420344A344F34A0
:100FBC0053344534503448342A3400344334723476
:100FCC006534613474346534643420344234793497
:100FDC000034563461346934733461346B3468349E
:060FEC00203450340034F3
:02400E003A3F37
:00000001FF
